:100000000C94F2000C941A010C941A010C941A012D
:100010000C941A010C941A010C941A010C941A01F4
:100020000C941A010C941A010C941A010C94030AF2
:100030000C941A010C941A010C941A010C941A01D4
:100040000C9442080C941A010C94B2080C948C087D
:100050000C941A010C941A010C941A010C941A01B4
:100060000C94E4080C941A010000000024002700FE
:100070002A00656E61626C65642C746172676574D8
:1000800052504D2C6D6561737572656452504D2CE4
:1000900070756C73655573004D61676E657420648F
:1000A000657465637465642E205374617274696E3F
:1000B000672063727569736520636F6E74726F6C0D
:1000C0002E0020204E6F206D61676E657420646580
:1000D0007465637465642E20436865636B20706C7F
:1000E0006163656D656E7420616E6420706F776505
:1000F000722E0057616974696E6720666F722041C5
:100100005335363030206D61676E65742E2E2E00AB
:10011000000000002300260029004B702073657446
:1001200020746F3A20005461726765742052504DFC
:100130002073657420746F3A20004552524F523A32
:10014000204932432072656164206661696C656490
:100150000043727569736520636F6E74726F6C20F3
:1001600044495341424C4544202852432920E280CF
:100170009420736572766F206E65757472616C0081
:1001800043727569736520636F6E74726F6C20457E
:100190004E41424C454420285243290000000000B3
:1001A000250028002B0004040404040404040202B3
:1001B00002020202030303030303010204081020E6
:1001C00040800102040810200102040810200000F1
:1001D0000008000201000003040700000000000006
:1001E0000000040B11241FBECFEFD8E0DEBFCDBF4F
:1001F00011E0A0E0B1E0ECEDF3E202C005900D9259
:10020000A634B107D9F722E0A6E4B1E001C01D92FF
:10021000A63EB207E1F710E0C2EFD0E004C021979C
:10022000FE010E94C710C13FD107C9F70E94730B9E
:100230000C94EC110C940000E091E302EC3088F592
:100240004091E40228E830E0241B310947FD339552
:10025000220F331F220F331F8217930784F0409120
:10026000E50228E532E0241B310947FD3395220FD2
:10027000331F220F331F821793070CF49C01225067
:100280003109220F331F4FB7F8948E2F90E0FC01F5
:10029000EE0FFF1FE80FF91FE254FD4F3283218359
:1002A0004FBF089590E0FC01E253FE4F2491FC0102
:1002B000E654FE4F3491FC01EA55FE4FE491EE23E3
:1002C000C9F0222339F0233001F1A8F4213019F1CB
:1002D000223029F1F0E0EE0FFF1FE456FE4FA5910A
:1002E000B4918FB7F894EC91611126C030953E23FC
:1002F0003C938FBF08952730A9F02830C9F02430EF
:1003000049F7809180008F7D03C0809180008F77B6
:1003100080938000DFCF84B58F7784BDDBCF84B539
:100320008F7DFBCF8091B0008F778093B000D2CFCC
:100330008091B0008F7DF9CF3E2BDACF3FB7F89494
:1003400080919D0190919E01A0919F01B091A0018B
:1003500026B5A89B05C02F3F19F00196A11DB11D20
:100360003FBFBA2FA92F982F8827BC01CD01620F5C
:10037000711D811D911D42E0660F771F881F991F17
:100380004A95D1F7089508950895AF92BF92CF92FC
:10039000DF92EF92FF920F931F93CF93DF936C0145
:1003A0007B018B01040F151FEB015E01AE18BF0826
:1003B000C017D10759F06991D601ED91FC910190D8
:1003C000F081E02DC6010995892B79F7C501DF91F0
:1003D000CF911F910F91FF90EF90DF90CF90BF9042
:1003E000AF900895FC01538D448D252F30E0842F6C
:1003F00090E0821B930B541710F0CF96089501974D
:100400000895FC01918D828D981761F0A28DAE0F39
:10041000BF2FB11D5D968C91928D9F5F9F73928FC0
:1004200090E008958FEF9FEF0895FC01918D828DEC
:10043000981731F0828DE80FF11D858D90E00895B9
:100440008FEF9FEF08952FB7F8948091A1019091BD
:10045000A201A091A301B091A4012FBF80931D021E
:1004600090931E02A0931F02B093200285E192E0B8
:100470000E94150297FF26C02FB7F8948091A10122
:100480009091A201A091A301B091A4012FBF40912E
:100490001D0250911E0260911F0270912002841B68
:1004A000950BA60BB70B4091190250911A0260915F
:1004B0001B0270911C0284179507A607B707B0F2BC
:1004C0008FEF9FEF08958F929F92AF92BF92CF923E
:1004D000DF92EF92FF92CF93DF930E942302FC0101
:1004E00097FD88C08D32910509F04CC0812C912C6C
:1004F00080E8A82E8FE3B82EC12CD12C7601C0E065
:10050000D0E0E130F10559F1ED32F10509F447C0D1
:10051000EE32F10509F445C0CF01C0970A97F8F40F
:10052000AAE0B0E0A70196010E947F106F01FF0FC3
:10053000EE08FF08C60ED71EE81EF91E80E3C81A93
:10054000D108E108F108CC2351F02DEC3CEC4CEC47
:100550005DE3C501B4010E94C10F4B015C0185E15F
:1005600092E00E9401020E942302FC01C0970A97B8
:1005700040F2EE32F105B9F4CC2319F2CD2FD111AE
:1005800018C025C0C0970A9708F4B0CFEE32F10525
:1005900009F4ACCF85E192E00E9401029ECFD1E048
:1005A000DECFC1E0DCCFE130F10509F4AACFDD23D5
:1005B00041F0F094E094D094C094C11CD11CE11C93
:1005C000F11CC701B6010E94620FCC2341F0C701A4
:1005D000B6010E94620FA50194010E94C10FDF9134
:1005E000CF91FF90EF90DF90CF90BF90AF909F9012
:1005F0008F90089560E070E0CB01F1CFFC01918D08
:10060000228D892F90E0805C9F4F821B91098F7310
:100610009927089585E192E00E94FE0221E0892B4E
:1006200009F420E0822F089580E090E0892B29F0E2
:100630000E940A0381110C9400000895FC01A48D0E
:10064000A80FB92FB11DA35ABF4F2C91848D90E0F4
:1006500001968F739927848FA689B7892C93A089D7
:10066000B1898C91837080648C93938D848D981361
:1006700006C00288F389E02D80818F7D80830895F4
:10068000EF92FF920F931F93CF93DF93EC0181E0E2
:10069000888F9B8D8C8D98131AC0E889F989808189
:1006A00085FF15C09FB7F894EE89FF896083E889BC
:1006B000F98980818370806480839FBF81E090E0AE
:1006C000DF91CF911F910F91FF90EF900895F62E3B
:1006D0000B8D10E00F5F1F4F0F731127E02E8C8DD5
:1006E0008E110CC00FB607FCFACFE889F98980811A
:1006F00085FFF5CFCE010E941E03F1CFEB8DEC0FED
:10070000FD2FF11DE35AFF4FF0829FB7F8940B8F36
:10071000EA89FB8980818062CFCF0F931F93CF93AB
:10072000DF938C01D0E0C0E0F801EC0FFD1F649175
:10073000662341F085E192E00E944003892B11F08D
:100740002196F2CFCE01DF91CF911F910F910895A5
:10075000682F85E192E00C944003CF93DF93EC0186
:10076000888D8823B9F0AA89BB89E889F9898C9199
:1007700085FD03C0808186FD0DC00FB607FCF7CF55
:100780008C9185FFF2CF808185FFEDCFCE010E9455
:100790001E03E9CFDF91CF91089520916801260FC4
:1007A0003327331F21323105ECF420910F02FC0175
:1007B00090E080E0243069F082E00895A091680123
:1007C0002191AC01485B5E4FA40FB52FB11D2C9356
:1007D0000196861798F380916801680F609368010D
:1007E00080E0089581E0089510920F0281E08093E7
:1007F000EE011092E90161E082E10E94520161E0A4
:1008000083E10E945201E9EBF0E080818E7F8083DA
:1008100080818D7F808388E48093B80085E4809315
:10082000BC000895CF93DF9391E090934701882314
:10083000B9F0C091B800D091BA008091BC008A7B19
:100840008093BC0060E082E10E94520160E083E19D
:100850000E9452010E94F403D093BA00C093B800E2
:10086000DF91CF910895CF92DF92EF92FF920F9395
:100870001F93CF93C82F813208F096C00E949E012B
:100880006B017C0180910F02811169C081E080932E
:100890000F028093EE019FEF9093ED011092EC0117
:1008A0009C0F9093EB018093EA018091EA018C66A2
:1008B0008093EA018091E901813009F077C01092BC
:1008C000E9010E949E016B017C018091EA01809305
:1008D000BB008091110290911202A0911302B0917D
:1008E0001402892B8A2B8B2BA1F00E949E01009170
:1008F00011021091120220911302309114026C190E
:100900007D098E099F09061717072807390708F47C
:1009100047C08091BC0083FDD8CF85EC8093BC009C
:100920000E949E016B017C0180910F02813009F4CD
:100930003FC08091EC018C1710F4C091EC01A9EC40
:10094000B1E0EFEEF1E080E08C1354C08C2FCF913A
:100950001F910F91FF90EF90DF90CF9008958091BD
:10096000110290911202A0911302B0911402892BEE
:100970008A2B8B2B09F486CF0E949E0100911102D5
:100980001091120220911302309114026C197D090A
:100990008E099F09061717072807390708F072CF35
:1009A000809110020E941204C0E0D0CF85EEB6CF35
:1009B0008091110290911202A0911302B091140241
:1009C000892B8A2B8B2B09F4AFCF0E949E010091BB
:1009D00011021091120220911302309114026C192D
:1009E0007D098E099F09061717072807390708F0A0
:1009F0009BCFD6CF9D9191938F5FA6CFCF92DF9261
:100A0000EF92FF920F931F93CF93DF93D091C80182
:100A100081E0D13208F09BC0C091C7010E949E01C5
:100A20006B017C0180910F0281116BC082E0809389
:100A30000F021092EE018FEF8093ED011092EC0106
:100A4000D093EB01A7EAB1E0E9ECF1E080E0D81344
:100A50008DC01092EA018091EA01CC0FC82BC0939F
:100A6000EA018091E901813009F084C01092E90126
:100A70000E949E016B017C018091EA018093BB0082
:100A80008091110290911202A0911302B091140270
:100A9000892B8A2B8B2BA1F00E949E0100911102C1
:100AA0001091120220911302309114026C197D09E9
:100AB0008E099F09061717072807390708F442C04F
:100AC0008091BC0083FDD8CF85EC8093BC000E9450
:100AD0009E016B017C0180910F02823009F44CC0B1
:100AE0008091ED018F3F09F469C08091ED01803262
:100AF00009F466C08091ED01803309F463C084E09D
:100B000026C08091110290911202A0911302B0911F
:100B10001402892B8A2B8B2B09F484CF0E949E010F
:100B200000911102109112022091130230911402CF
:100B30006C197D098E099F090617170728073907C1
:100B400008F070CF809110020E94120485E010928C
:100B5000A6011092C8011092A501DF91CF911F91BB
:100B60000F91FF90EF90DF90CF9008959D9191931A
:100B70008F5F6DCF85EEA9CF809111029091120207
:100B8000A0911302B0911402892B8A2B8B2B09F4AC
:100B9000A2CF0E949E010091110210911202209199
:100BA0001302309114026C197D098E099F090617F2
:100BB00017072807390708F08ECFC4CF80E0C7CFCA
:100BC00082E0C5CF83E0C3CF0895E091900180918A
:100BD0008F01E81730F4F0E0E151FE4F808190E0A2
:100BE00008958FEF9FEF08959091900180918F016C
:100BF0002FEF3FEF981748F4E92FF0E0E151FE4F57
:100C0000208130E09F5F90939001C9010895809109
:100C10008F0190919001891B990B0895CF92DF92DB
:100C2000EF92FF920F931F93CF93DF937C01CB0141
:100C30008A012091A501222389F0EB016B01C40EEA
:100C4000D51ECC15DD0569F06991D701ED91FC91B8
:100C50000190F081E02DC7010995F3CF642F0E9428
:100C6000CD03C801DF91CF911F910F91FF90EF90BD
:100C7000DF90CF900895CF93DF931F92CDB7DEB76B
:100C800069832091A5012223F9F02091C801203227
:100C900058F021E030E0FC013383228390E080E0D3
:100CA0000F90DF91CF9108958091A601E82FF0E099
:100CB000E955FE4F998190838F5F8093A6018093C1
:100CC000C80181E090E0ECCF61E0CE0101960E9486
:100CD000CD03F7CF90E080E00895FC010190002063
:100CE000E9F73197AF01481B590BBC0185E192E050
:100CF0000C94C501CF93DF930E948D03EC0186E332
:100D000091E00E946D068C0F9D1FDF91CF91089599
:100D10008F929F92AF92BF920F931F93CF93DF93C7
:100D2000CDB7DEB7A1970FB6F894DEBF0FBECDBF2B
:100D300019A2423008F44AE08E010F5D1F4F842E45
:100D4000912CB12CA12CA50194010E948A10E62FB0
:100D5000B901CA01EA30F4F4E05DD801EE938D01E7
:100D6000232B242B252B79F790E080E0109719F0A6
:100D7000CD010E946D06A1960FB6F894DEBF0FBE9E
:100D8000CDBFDF91CF911F910F91BF90AF909F90FA
:100D90008F900895E95CE1CF4F925F926F927F92BE
:100DA0008F929F92AF92BF92CF92DF92EF92FF927B
:100DB0000F931F93CF936B017C01742EAC019B01A9
:100DC0000E94E711882399F089E391E0CF911F9168
:100DD0000F91FF90EF90DF90CF90BF90AF909F90DA
:100DE0008F907F906F905F904F900C946D064601AE
:100DF0005701E894B7F82FEF3FEF4FE75FE7C501E2
:100E0000B4010E94E71181110DC02FEF3FEF4FE7B2
:100E10005FE7C501B4010E945B0F18161CF48DE357
:100E200091E0D4CF2FEF3FEF4FE75FE4C701B6016A
:100E30000E94E21118161CF481E491E0C7CF2FEF55
:100E40003FEF4FE75FECC701B6010E945B0F87FDE4
:100E5000F3CF20E030E0A901C701B6010E945B0F8B
:100E600010E000E087FF08C08DE20E94A8038C011B
:100E7000F7FAF094F7F8F094C0E060E070E080E0FA
:100E80009FE37C1641F020E030E040E251E40E9414
:100E90003A11CF5FF6CFA70196010E94CE102B0129
:100EA0003C010E94B3114B015C014AE00E9488069C
:100EB0007C01E00EF11ECC23B1F1C501B4010E940A
:100EC000600F9B01AC01C301B2010E94CD104B0128
:100ED0005C018EE20E94A803E80EF91EC15018F1D1
:100EE00020E030E040E251E4C501B4010E94C10FAE
:100EF0002B013C010E94B3114B01B12CA12C4AE003
:100F0000C501B4010E948806E80EF91EC501B401AE
:100F10000E94600F9B01AC01C301B2010E94CD1081
:100F20004B015C01DBCFC701CF911F910F91FF9067
:100F3000EF90DF90CF90BF90AF909F908F907F9079
:100F40006F905F904F900895CF92DF92EF92FF9253
:100F5000CF93DF936C01990FEE08FF08F7FE17C0DF
:100F60008DE20E94A803EC0166277727CB016C195C
:100F70007D098E099F094AE00E9488068C0F9D1FFB
:100F8000DF91CF91FF90EF90DF90CF9008954AE0EE
:100F9000C701B601DF91CF91FF90EF90DF90CF9026
:100FA0000C9488061F93CF93DF93EC0181E080932C
:100FB000A50186E38093C7011092A6011092C80193
:100FC0006CE082EB92E00E943B060E94FE048823C4
:100FD00029F080E0DF91CF911F91089582E00E9477
:100FE00033041092900180938F01823091F782EB4D
:100FF00092E00E94F405182F82EB92E00E94F40523
:1010000020E0312F22273F70282B392B398328836A
:1010100081E0E0CF85ED8093BC008091110290913A
:101020001202A0911302B09114020796A11DB11DE6
:1010300023E0B695A795979587952A95D1F72091A6
:10104000BC0024FD03C010920F02089540911102CC
:10105000509112026091130270911402452B462B9D
:10106000472B69F30097A105B10541F02AE22A95C3
:10107000F1F700C00197A109B109E1CF80911002F9
:101080000C9412041F920F920FB60F9211242F93FB
:101090003F938F939F93AF93BF938091A1019091C2
:1010A000A201A091A301B091A40130919C0123E081
:1010B000230F2D3758F50196A11DB11D20939C01DA
:1010C0008093A1019093A201A093A301B093A401E6
:1010D00080919D0190919E01A0919F01B091A001EE
:1010E0000196A11DB11D80939D0190939E01A09337
:1010F0009F01B093A001BF91AF919F918F913F91BC
:101100002F910F900FBE0F901F90189526E8230F78
:101110000296A11DB11DD2CF1F920F920FB60F9252
:1011200011242F933F934F935F936F937F938F93EC
:101130009F93AF93BF93EF93FF9385E192E00E945B
:101140001E03FF91EF91BF91AF919F918F917F917E
:101150006F915F914F913F912F910F900FBE0F9024
:101160001F9018951F920F920FB60F9211242F9374
:101170008F939F93EF93FF93E0912502F0912602C6
:101180008081E0912B02F0912C0282FD1BC09081A6
:1011900080912E028F5F8F7320912F02821741F072
:1011A000E0912E02F0E0EB5EFD4F958F80932E02D2
:1011B000FF91EF919F918F912F910F900FBE0F9004
:1011C0001F9018958081F4CF1F920F920FB60F9247
:1011D00011242F933F934F935F936F937F938F933C
:1011E0009F93AF93BF93EF93FF938091B900887F54
:1011F000803609F44AC0F0F5883209F4A7C018F522
:10120000803109F49BC0B8F4882309F4F9C0883010
:1012100009F494C0FF91EF91BF91AF919F918F918D
:101220007F916F915F914F913F912F910F900FBEE2
:101230000F901F901895883109F488C0803251F7BB
:101240008093ED0114C0803409F49DC040F48033D4
:10125000B9F38833F9F68093ED0185ECB0C08035A1
:1012600009F485C0883509F496C0883499F60E943F
:101270000A08D0CF883909F48CC038F5883729F0AE
:1012800050F4883611F0803729F683E080930F02FE
:1012900010928A0157C0883809F47BC0803919F050
:1012A000803809F0B7CF80918A01803208F071C090
:1012B000E0918A0181E08E0F80938A018091BB00CA
:1012C000F0E0E659FE4F80833DC0803B39F0E0F40A
:1012D000803A09F479C0883A09F09CCF84E0809381
:1012E0000F021092690110926801E0918D01F09156
:1012F0008E0109958091680181110FC081E0809372
:1013000068011092480109C0803C09F4A6CF883CCE
:1013100009F4A3CF883B09F07DCFE091690181E01A
:101320008E0F80936901F0E0E85BFE4F808180932F
:10133000BB00909169018091680129C08091EA0108
:101340008093BB0085EC8093BC0064CF9091EC014E
:101350008091EB01981758F5E091EC0181E08E0F38
:101360008093EC01F0E0E753FE4F8081E9CFE091FC
:10137000EC0181E08E0F8093EC018091BB00F0E0E6
:10138000E753FE4F80839091EC018091EB01981719
:10139000C8F285E8D8CFE091EC0181E08E0F809310
:1013A000EC018091BB00F0E0E753FE4F8083809119
:1013B000EE0181115CCF81E08093E90184EA8093A2
:1013C000BC0010920F0226CF85EC8093BC001092D7
:1013D0000F0280918A01803230F4E0918A01F0E0BE
:1013E000E659FE4F108260918A0170E0E0918B0116
:1013F000F0918C018AE691E0099510928A010ACF5A
:101400001092ED0134CF1F920F920FB60F9211245C
:101410002F933F934F935F936F937F938F939F93FC
:10142000AF93BF93CF93DF93EF93FF9380914601E8
:10143000C091E202D0E087FF24C010928500109294
:101440008400809146018F5F809346018091460120
:10145000082E000C990B8C179D0724F480914601EF
:101460008C30C4F180918400909185000496803482
:101470009C4908F47AC0809184009091850004967C
:1014800076C080914601082E000C990B8C179D07A1
:10149000C4F6E09146018E2FEE0F990BFC01EE0F82
:1014A000FF1FE80FF91FE254FD4F808186FFC9CF6F
:1014B000E09146018E2FEE0F990BFC01EE0FFF1FFE
:1014C000E80FF91FE254FD4F808160E08F730E94A6
:1014D0005201B7CF2091840030918500E091460100
:1014E0008E2FEE0F990BFC01EE0FFF1FE80FF91F77
:1014F000E254FD4F81819281820F931F9093890066
:1015000080938800E09146018E2FEE0F990BFC012D
:10151000EE0FFF1FE80FF91FE254FD4F808186FF99
:1015200011C0E09146018E2FEE0F990BFC01EE0FDA
:10153000FF1FE80FF91FE254FD4F808161E08F73B8
:101540000E945201FF91EF91DF91CF91BF91AF9136
:101550009F918F917F916F915F914F913F912F91CB
:101560000F900FBE0F901F90189580E49CE9909308
:101570008900809388008FEF80934601E3CFCF925C
:10158000DF92EF92FF920F931F93E82FF92F05C080
:10159000015011092109310961F1908196239417B5
:1015A000B9F305C0015011092109310911F19081E8
:1015B00096239413F7CFC12CD12CE12CF12C0AC027
:1015C0008FEFC81AD80AE80AF80A0C151D052E056F
:1015D0003F0579F080818623841791F36C2D7D2D52
:1015E0008E2D9F2D1F910F91FF90EF90DF90CF9048
:1015F000089560E070E080E090E01F910F91FF900F
:10160000EF90DF90CF900895109218021092170279
:1016100088EE93E0A0E0B0E08093190290931A0264
:10162000A0931B02B0931C0226E131E03093160216
:101630002093150225EC30E0309322022093210202
:1016400024EC30E0309324022093230220EC30E09D
:10165000309326022093250221EC30E030932802BB
:101660002093270222EC30E030932A0220932902B3
:1016700026EC30E030932C0220932B0210922E02A5
:1016800010922F0210923002109231021092B50285
:101690001092B4028093B6029093B702A093B8025E
:1016A000B093B90288E291E09093B3028093B202C2
:1016B0008091E2028C3098F491E0980F9093E202CE
:1016C0008093E30290E0FC01EE0FFF1FE80FF91F8B
:1016D000E254FD4F88EB9BE09283818308958FEF66
:1016E0008093E3020895CF93DF9300D01F92CDB78C
:1016F000DEB7789484B5826084BD84B5816084BD92
:1017000085B5826085BD85B5816085BD80916E009F
:10171000816080936E0010928100809181008260D0
:10172000809381008091810081608093810080910D
:1017300080008160809380008091B10084608093FC
:10174000B1008091B00081608093B00080917A00F8
:10175000846080937A0080917A00826080937A001E
:1017600080917A00816080937A0080917A0080680D
:1017700080937A001092C100E0912502F091260238
:1017800082E08083E0912102F09122021082E091B8
:101790002302F091240280E1808310922D02E091D7
:1017A0002902F0912A0286E08083E0912702F091DD
:1017B0002802808180618083E0912702F0912802D5
:1017C000808188608083E0912702F09128028081E7
:1017D00080688083E0912702F091280280818F7DCC
:1017E00080831092900110928F011092A6011092A6
:1017F000C8010E94F40383EC91E090938E018093E2
:101800008D0184EC91E090938C0180938B018CE0AE
:101810008093B8008DEB282E81E0382EF1012491C1
:10182000E9EAF1E084918823C9F090E0880F991FDC
:10183000FC01E859FF4FA591B491FC01E456FE4F1D
:10184000459154913FB7F8949C91822F80959823AD
:101850009C93DA019C9189238C933FBF8091E30292
:101860008C3008F06AC0EFEBF1E02491EBEAF1E094
:101870008491882399F090E0880F991FFC01E85922
:10188000FF4FA591B491FC01E456FE4F85919491D0
:101890008FB7F894EC91E22BEC938FBF8091E30229
:1018A000282F30E0F901EE0FFF1FE20FF31FE25483
:1018B000FD4F9081907C9560908395EF9093E4022A
:1018C0009BEB9093E5022CE0622F0E94BB10829F5D
:1018D000B001112430E020E0AB01420F531FFA01A8
:1018E000EE0FFF1FE40FF51FE254FD4F908196FDB0
:1018F00016C02F5F3F4F2C30310571F781110FC09B
:101900001092800082E080938100109285001092F6
:101910008400B19A80916F00826080936F00E091A3
:10192000E3028E2F90E0FC01EE0FFF1FE80FF91F7E
:10193000E254FD4F8081806480838CED95E00E94AD
:101940001C0183EF90E00E947A0611E006E31093F9
:10195000A5010093C7011092A6011092C8016BE087
:1019600082EB92E00E943B060E94FE04882351F124
:1019700082EC90E00E947A060E949E014B015C017D
:1019800024EFC22EDD24D394E12CF12C0E949E0181
:10199000681979098A099B09683E73408105910598
:1019A000A8F3B1E0CB1AD108E108F108E8EE8E0EF9
:1019B000E3E09E1EA11CB11CC114D104E104F1049A
:1019C00029F7C5CF81E00E943304109290018093E3
:1019D0008F01813069F682EB92E00E94F40585FF69
:1019E000C7CF88E990E00E947A0685E991E00E94DD
:1019F000D2072FB7F8948091A1019091A201A091F4
:101A0000A301B091A4012FBF8093970190939801F7
:101A1000A0939901B0939A0182E790E00E947A0620
:101A2000F1016491E9EAF1E08491E82FF0E0EE0F32
:101A3000FF1FE05FFE4F8591949108EA11E620E0D8
:101A400030E0462F0E94BF0A61157105810591059E
:101A500029F06F5F7F4F8F4F9F4F9F706538F3E086
:101A60007F0724F070931101609310010091100121
:101A700010911101B801605F7540072E000C880BB2
:101A8000990B0E94620F20E030E040EF53E40E9487
:101A90003A116B017C0120E030E0A9010E945B0F4C
:101AA00087FD68C020E030E040E85FE3C701B60191
:101AB0000E94E21118160CF461C020E030E048E406
:101AC00052E4C701B6010E94C10F20E030E048ECAB
:101AD00052E40E94CE1060930C0170930D0180932C
:101AE0000E0190930F0180919B01073E15400CF46D
:101AF0004CC0811107C081E080939B0180E891E098
:101B00000E947A068FB7F8944090A1015090A201EC
:101B10006090A3017090A4018FBF80919701909174
:101B20009801A0919901B0919A0173016201C81ABC
:101B3000D90AEA0AFB0A94E1C916D104E104F104C6
:101B400060F01A821982CE0101960E94D20781119B
:101B500024C08AE391E00E947A06E0E0F0E0EF2BF7
:101B600009F45ECF0E940A03882309F459CF0E942A
:101B7000000056CFC12CD12C76019FCFC12CD12C87
:101B800080E8E82E8FE3F82E98CF882309F4BACFA7
:101B900010929B0181E591E0B3CFC701B6010E948D
:101BA000600F6B017C0109811A81809195019091F0
:101BB0009601B801681B790B6130A8E07A070CF434
:101BC0005FC17051072E000C880B990B0E94620FA9
:101BD00020E030E040E859E30E94C10F4B015C0176
:101BE000A701960160E070E68AE697E40E943A1148
:101BF0009B01AC01C501B4010E94C10F9B01AC0166
:101C0000209391013093920140939301509394015A
:101C1000109396010093950140929701509298017C
:101C20006092990170929A01E0919B01EB830CED17
:101C300015E0EE2329F160910C0170910D01809166
:101C40000E0190910F010E94CD102091080130915A
:101C5000090140910A0150910B010E94C10F0E949D
:101C6000AC118B0104521A4F0337F6E01F0714F032
:101C700002E716E00F3426E0120714F40FE416E032
:101C800020E030E0A901609104017091050180918C
:101C90000601909107010E94C10F2B013C01B80180
:101CA000110F880B990B0E94620F9B01AC01C301BD
:101CB000B2010E94CE104B015C018092040190920F
:101CC0000501A0920601B092070129E23CE54FE030
:101CD0005DE3C701B6010E94C10F6B017C0140901A
:101CE0000001509001016090020170900301A30176
:101CF0009201C501B4010E94CD105B018C019B01D2
:101D0000AC01C701B6010E945B0F87FF02C05601FC
:101D10008701F7FAF094F7F8F0949501A801C7014C
:101D2000B6010E94E211181614F065017801A701AE
:101D30009601C301B2010E94CE106093000170931E
:101D40000101809302019093030180911001909111
:101D50001101803F9540A4F480E090E8ABEBB4E43F
:101D60008093040190930501A0930601B0930701AD
:101D70008093000190930101A0930201B0930301AD
:101D800020E030E040E05FE36091000170910101EC
:101D900080910201909103010E94CE100E94AC112B
:101DA0006B01CB010E941C01AB818A2F90E00E9445
:101DB000A4078CE20E94A80360910C0170910D01B0
:101DC00080910E0190910F0141E00E94CC068CE2BF
:101DD0000E94A803609191017091920180919301FA
:101DE0009091940141E00E94CC068CE20E94A803ED
:101DF000C6010E94A4078CE20E94A803C0901001B3
:101E0000D09011010D2C000CEE08FF084AE0C7012C
:101E1000B601F7FE0BC08DE20E94A8036627772764
:101E2000CB016C197D098E099F094AE00E94880642
:101E300086E391E00E946D0685E192E00E94FE0239
:101E4000892B09F48ACE85E192E00E9401028F7D00
:101E50008335E9F40E9463026B017C01C0920C019E
:101E6000D0920D01E0920E01F0920F0186E291E016
:101E70000E948D0341E0C701B6010E94CC06D8CF75
:101E80006115B8EF7B070CF09DCE705F9BCE8B3455
:101E900099F60E9463026B017C01C0920801D09206
:101EA0000901E0920A01F0920B018AE191E00E949F
:101EB0008D0343E0E0CF0E949D0F08F481E0089578
:101EC000E89409C097FB3EF49095809570956195D4
:101ED0007F4F8F4F9F4F9923A9F0F92F96E9BB278A
:101EE0009395F695879577956795B795F111F8CF06
:101EF000FAF4BB0F11F460FF1BC06F5F7F4F8F4F71
:101F00009F4F16C0882311F096E911C0772321F066
:101F10009EE8872F762F05C0662371F096E8862FFE
:101F200070E060E02AF09A95660F771F881FDAF755
:101F3000880F9695879597F90895990F0008550F82
:101F4000AA0BE0E8FEEF16161706E807F907C0F03F
:101F500012161306E407F50798F0621B730B840B47
:101F6000950B39F40A2661F0232B242B252B21F421
:101F700008950A2609F4A140A6958FEF811D811DC1
:101F800008950E94D40F0C9445100E94371038F029
:101F90000E943E1020F0952311F00C942E100C940A
:101FA000341011240C9479100E94561070F3959FF0
:101FB000C1F3950F50E0551F629FF001729FBB2740
:101FC000F00DB11D639FAA27F00DB11DAA1F649FDC
:101FD0006627B00DA11D661F829F2227B00DA11D8F
:101FE000621F739FB00DA11D621F839FA00D611D15
:101FF000221F749F3327A00D611D231F849F600D36
:10200000211D822F762F6A2F11249F5750409AF05E
:10201000F1F088234AF0EE0FFF1FBB1F661F771FEA
:10202000881F91505040A9F79E3F510580F00C94B5
:102030002E100C9479105F3FE4F3983ED4F386950C
:1020400077956795B795F795E7959F5FC1F7FE2B55
:10205000880F911D9695879597F9089597F99F6731
:1020600080E870E060E008959FEF80EC0895002420
:102070000A941616170618060906089500240A94ED
:1020800012161306140605060895092E0394000C73
:1020900011F4882352F0BB0F40F4BF2B11F460FF02
:1020A00004C06F5F7F4F8F4F9F4F089557FD90582B
:1020B000440F551F59F05F3F71F04795880F97FB0C
:1020C000991F61F09F3F79F08795089512161306C6
:1020D0001406551FF2CF4695F1DF08C016161706F5
:1020E0001806991FF1CF869571056105089408952A
:1020F000E894BB2766277727CB0197F908950E94BC
:10210000AC10A59F900DB49F900DA49F800D911DC4
:1021100011240895A1E21A2EAA1BBB1BFD010DC0BC
:10212000AA1FBB1FEE1FFF1FA217B307E407F50787
:1021300020F0A21BB30BE40BF50B661F771F881F63
:10214000991F1A9469F760957095809590959B01F9
:10215000AC01BD01CF010895A29FB001B39FC001A2
:10216000A39F700D811D1124911DB29F700D811DC3
:102170001124911D0895991B79E004C0991F9617A9
:1021800008F0961B881F7A95C9F780950895EE0F81
:10219000FF1F0590F491E02D09945058BB27AA2702
:1021A0000E94E5100C9445100E94371038F00E94F0
:1021B0003E1020F039F49F3F19F426F40C943410AB
:1021C0000EF4E095E7FB0C942E10E92F0E945610B8
:1021D00058F3BA17620773078407950720F079F45C
:1021E000A6F50C9478100EF4E0950B2EBA2FA02DC6
:1021F0000B01B90190010C01CA01A0011124FF27B4
:10220000591B99F0593F50F4503E68F11A16F040AE
:10221000A22F232F342F4427585FF3CF46953795AD
:102220002795A795F0405395C9F77EF41F16BA0B72
:10223000620B730B840BBAF09150A1F0FF0FBB1F20
:10224000661F771F881FC2F70EC0BA0F621F731F69
:10225000841F48F4879577956795B795F7959E3FC6
:1022600008F0B0CF9395880F08F09927EE0F979557
:10227000879508950E944E110C9445100E943E10BF
:1022800058F00E94371040F029F45F3F29F00C9479
:102290002E1051110C9479100C9434100E94561089
:1022A00068F39923B1F3552391F3951B550BBB2785
:1022B000AA2762177307840738F09F5F5F4F220FCA
:1022C000331F441FAA1FA9F335D00E2E3AF0E0E8C1
:1022D00032D091505040E695001CCAF72BD0FE2F0B
:1022E00029D0660F771F881FBB1F2617370748079F
:1022F000AB07B0E809F0BB0B802DBF01FF27935857
:102300005F4F3AF09E3F510578F00C942E100C94DC
:1023100079105F3FE4F3983ED4F3869577956795FF
:10232000B795F7959F5FC9F7880F911D969587958B
:1023300097F90895E1E0660F771F881FBB1F6217AA
:1023400073078407BA0720F0621B730B840BBA0B68
:10235000EE1F88F7E09508950E94B3116894B111BB
:102360000C94791008950E945E1088F09F5798F0A1
:10237000B92F9927B751B0F0E1F0660F771F881F8A
:10238000991F1AF0BA95C9F714C0B13091F00E94A4
:102390007810B1E008950C947810672F782F882773
:1023A000B85F39F0B93FCCF3869577956795B395CB
:1023B000D9F73EF490958095709561957F4F8F4F3A
:1023C0009F4F08950E949D0F08F48FEF08950E947B
:0C23D0009D0F880B990B0895F894FFCF27
:1023DC000080BB440080BB440000A0400000C84209
:1023EC00DC05000000004003C501F201AD03FE0254
:1023FC0001021502000000003B060E066A06E40509
:10240C000706F405E5050D0A006E616E00696E663F
:06241C00006F766600006F
:00000001FF
